{
  "contractName": "Shop",
  "abi": [
    {
      "constant": false,
      "inputs": [],
      "name": "buyApple",
      "outputs": [],
      "payable": true,
      "stateMutability": "payable",
      "type": "function"
    },
    {
      "constant": true,
      "inputs": [],
      "name": "getApples",
      "outputs": [
        {
          "name": "",
          "type": "uint256"
        }
      ],
      "payable": false,
      "stateMutability": "view",
      "type": "function"
    },
    {
      "constant": false,
      "inputs": [
        {
          "name": "_applePrice",
          "type": "uint256"
        }
      ],
      "name": "sellMyApple",
      "outputs": [],
      "payable": true,
      "stateMutability": "payable",
      "type": "function"
    }
  ],
  "bytecode": "0x608060405234801561001057600080fd5b50610232806100206000396000f3fe6080604052600436106100345760003560e01c80630bd5849314610039578063284131c7146100675780633f9be5d114610071575b600080fd5b6100656004803603602081101561004f57600080fd5b810190808035906020019092919050505061009c565b005b61006f610170565b005b34801561007d57600080fd5b506100866101c0565b6040518082815260200191505060405180910390f35b6000816000803373ffffffffffffffffffffffffffffffffffffffff1673ffffffffffffffffffffffffffffffffffffffff1681526020019081526020016000205401905060008060003373ffffffffffffffffffffffffffffffffffffffff1673ffffffffffffffffffffffffffffffffffffffff168152602001908152602001600020819055503373ffffffffffffffffffffffffffffffffffffffff166108fc829081150290604051600060405180830381858888f1935050505015801561016b573d6000803e3d6000fd5b505050565b6000803373ffffffffffffffffffffffffffffffffffffffff1673ffffffffffffffffffffffffffffffffffffffff16815260200190815260200160002060008154809291906001019190505550565b60008060003373ffffffffffffffffffffffffffffffffffffffff1673ffffffffffffffffffffffffffffffffffffffff1681526020019081526020016000205490509056fea165627a7a72305820db7aed016ddb6b1c7f8c549beebb64027bf7e5f7dc90bfb37d330602d9786b8b0029",
  "source": "pragma solidity ^0.5.0;\n\ncontract Shop {\n  mapping (address => uint256) myApple;\n\n  function buyApple() public payable {\n    myApple[msg.sender] ++;\n  }\n\n  function getApples() external view returns(uint256) {\n    return myApple[msg.sender];\n  }\n\n  function sellMyApple(uint _applePrice) external payable {\n    uint refund = myApple[msg.sender] + _applePrice;\n    myApple[msg.sender] = 0;\n    msg.sender.transfer(refund);\n  } \n}\n",
  "sourcePath": "/home/student/apps/onlineshop/contracts/Shop.sol",
  "compiler": {
    "name": "solc",
    "version": "0.5.8+commit.23d335f2.Emscripten.clang"
  },
  "schemaVersion": "3.0.15",
  "updatedAt": "2019-09-10T02:48:25.267Z",
  "devdoc": {
    "methods": {}
  },
  "userdoc": {
    "methods": {}
  }
}